:020000040800F2
:1000000000280020FD150008E5130008EB13000888
:10001000F1130008F7130008FD13000800000000AA
:1000200000000000000000000000000003140008B1
:100030000F140008000000001B140008271400081B
:100040004516000845160008451600084516000824
:100050004516000845160008451600084516000814
:100060004516000845160008451600084516000804
:1000700045160008451600084516000845160008F4
:1000800045160008451600083514000845160008F6
:1000900045160008451600084516000845160008D4
:1000A00045160008451600084516000845160008C4
:1000B0004914000845160008000000004516000815
:1000C000451600080000000000000000451600086A
:1000D00000000000451600085D1400080000000044
:1000E00045160008451600084516000800000000E7
:1000F0000000000000000000000000000000000000
:0C01000000000000000000005FF808F1A3
:1001100010B5054C237833B9044B13B10448AFF341
:1001200000800123237010BDE401002000000000C6
:100130003473000808B5034B1BB103490348AFF300
:10014000008008BD00000000E801002034730008B2
:10015000034613F8012B002AFBD1181A0138704707
:1001600081F0004102E000BF83F0004330B54FEA68
:1001700041044FEA430594EA050F08BF90EA020FD5
:100180001FBF54EA000C55EA020C7FEA645C7FEA68
:10019000655C00F0E2804FEA5454D4EB5555B8BF8B
:1001A0006D420CDD2C4480EA020281EA030382EAFC
:1001B000000083EA010180EA020281EA0303362D8E
:1001C00088BF30BD11F0004F4FEA01314FF4801C61
:1001D0004CEA113102D0404261EB410113F0004F73
:1001E0004FEA03334CEA133302D0524263EB43032A
:1001F00094EA050F00F0A780A4F10104D5F1200EC8
:100200000DDB02FA0EFC22FA05F2801841F1000122
:1002100003FA0EF2801843FA05F359410EE0A5F1F6
:1002200020050EF1200E012A03FA0EFC28BF4CF027
:10023000020C43FA05F3C01851EBE37101F00045DD
:1002400007D54FF0000EDCF1000C7EEB00006EEBEA
:100250000101B1F5801F1BD3B1F5001F0CD3490874
:100260005FEA30004FEA3C0C04F101044FEA4452CB
:1002700012F5800F80F09A80BCF1004F08BF5FEA52
:10028000500C50F1000041EB045141EA050130BD32
:100290005FEA4C0C404141EB0101013C28BFB1F544
:1002A000801FE9D291F0000F04BF01460020B1FA8F
:1002B00081F308BF2033A3F10B03B3F120020CDA62
:1002C0000C3208DD02F1140CC2F10C0201FA0CF040
:1002D00021FA02F10CE002F11402D8BFC2F1200CA5
:1002E00001FA02F120FA0CFCDCBF41EA0C0190405B
:1002F000E41AA2BF01EB0451294330BD6FEA0404A4
:100300001F3C1CDA0C340EDC04F11404C4F120028E
:1003100020FA04F001FA02F340EA030021FA04F3A0
:1003200045EA030130BDC4F10C04C4F1200220FAF7
:1003300002F001FA04F340EA0300294630BD21FA35
:1003400004F0294630BD94F0000F83F4801306BFFB
:1003500081F480110134013D4EE77FEA645C18BFEF
:100360007FEA655C29D094EA050F08BF90EA020F86
:1003700005D054EA000C04BF1946104630BD91EA7E
:10038000030F1EBF0021002030BD5FEA545C05D181
:100390004000494128BF41F0004130BD14F58004C0
:1003A0003CBF01F5801130BD01F0004545F0FE4134
:1003B00041F470014FF0000030BD7FEA645C1ABF69
:1003C000194610467FEA655C1CBF0B46024650EAA0
:1003D000013406BF52EA033591EA030F41F40021CC
:1003E00030BD00BF90F0000F04BF0021704730B552
:1003F0004FF4806404F132044FF000054FF0000127
:1004000050E700BF90F0000F04BF0021704730B5E7
:100410004FF4806404F1320410F0004548BF4042BC
:100420004FF000013EE700BF42004FEAE2014FEA11
:1004300031014FEA02701FBF12F07F4393F07F4FEC
:1004400081F06051704732F07F4208BF704793F0EF
:100450007F4F04BF41F40021704730B54FF4607402
:1004600001F0004521F000411CE700BF50EA010205
:1004700008BF704730B54FF000050AE050EA0102AE
:1004800008BF704730B511F0004502D5404261EB1E
:1004900041014FF4806404F132045FEA915C3FF45F
:1004A000D8AE4FF003025FEADC0C18BF03325FEAFC
:1004B000DC0C18BF033202EBDC02C2F1200300FAAD
:1004C00003FC20FA02F001FA03FE40EA0E0021FAD2
:1004D00002F11444BDE600BF70B54FF0FF0C4CF4C0
:1004E000E06C1CEA11541DBF1CEA135594EA0C0F72
:1004F00095EA0C0F00F0DEF82C4481EA030621EAAD
:100500004C5123EA4C5350EA013518BF52EA0335E7
:1005100041F4801143F4801338D0A0FB02CE4FF099
:100520000005E1FB02E506F00042E0FB03E54FF0C9
:100530000006E1FB03569CF0000F18BF4EF0010EC1
:10054000A4F1FF04B6F5007F64F5407404D25FEABD
:100550004E0E6D4146EB060642EAC62141EA555170
:100560004FEAC52040EA5E504FEACE2EB4F1FD0CB2
:1005700088BFBCF5E06F1ED8BEF1004F08BF5FEA30
:10058000500E50F1000041EB045170BD06F00046E2
:1005900046EA010140EA020081EA0301B4EB5C048F
:1005A000C2BFD4EB0C0541EA045170BD41F4801187
:1005B0004FF0000E013C00F3AB8014F1360FDEBFAC
:1005C000002001F0004170BDC4F10004203C35DA88
:1005D0000C341BDC04F11404C4F1200500FA05F30B
:1005E00020FA04F001FA05F240EA020001F00042AC
:1005F00021F0004110EBD37021FA04F642EB060122
:100600005EEA430E08BF20EAD37070BDC4F10C044B
:10061000C4F1200500FA04F320FA05F001FA04F20F
:1006200040EA020001F0004110EBD37041F10001FB
:100630005EEA430E08BF20EAD37070BDC4F1200506
:1006400000FA05F24EEA020E20FA04F301FA05F26E
:1006500043EA020321FA04F001F0004121FA04F216
:1006600020EA020000EBD3705EEA430E08BF20EAE6
:10067000D37070BD94F0000F0FD101F00046400020
:1006800041EB010111F4801F08BF013CF7D041EAA2
:10069000060195F0000F18BF704703F000465200A6
:1006A00043EB030313F4801F08BF013DF7D043EA77
:1006B0000603704794EA0C0F0CEA135518BF95EA2D
:1006C0000C0F0CD050EA410618BF52EA4306D1D1B4
:1006D00081EA030101F000414FF0000070BD50EAD3
:1006E000410606BF1046194652EA430619D094EA5D
:1006F0000C0F02D150EA013613D195EA0C0F05D147
:1007000052EA03361CBF104619460AD181EA03019A
:1007100001F0004141F0FE4141F470014FF0000052
:1007200070BD41F0FE4141F4780170BD70B54FF0ED
:10073000FF0C4CF4E06C1CEA11541DBF1CEA13556D
:1007400094EA0C0F95EA0C0F00F0A7F8A4EB05044F
:1007500081EA030E52EA03354FEA013100F0888046
:100760004FEA03334FF0805545EA131343EA12630F
:100770004FEA022245EA111545EA10654FEA0026C4
:100780000EF000419D4208BF964244F1FD0404F57D
:10079000407402D25B084FEA3202B61A65EB0305D9
:1007A0005B084FEA32024FF480104FF4002CB6EB96
:1007B000020E75EB030E22BFB61A754640EA0C0016
:1007C0005B084FEA3202B6EB020E75EB030E22BF56
:1007D000B61A754640EA5C005B084FEA3202B6EB97
:1007E000020E75EB030E22BFB61A754640EA9C0056
:1007F0005B084FEA3202B6EB020E75EB030E22BF26
:10080000B61A754640EADC0055EA060E18D04FEAE3
:10081000051545EA16754FEA06164FEAC30343EA83
:1008200052734FEAC2025FEA1C1CC0D111F4801F50
:100830000BD141EA00014FF000004FF0004CB6E749
:1008400011F4801F04BF01430020B4F1FD0C88BFE8
:10085000BCF5E06F3FF6AFAEB5EB030C04BFB6EBF3
:10086000020C5FEA500C50F1000041EB045170BDE6
:100870000EF0004E4EEA113114EB5C04C2BFD4EB13
:100880000C0541EA045170BD41F480114FF0000E97
:10089000013C90E645EA060E8DE60CEA135594EA13
:1008A0000C0F08BF95EA0C0F3FF43BAF94EA0C0F16
:1008B0000AD150EA01347FF434AF95EA0C0F7FF48B
:1008C00025AF104619462CE795EA0C0F06D152EADF
:1008D00003353FF4FDAE1046194622E750EA4106C3
:1008E00018BF52EA43067FF4C5AE50EA41047FF4D4
:1008F0000DAF52EA43057FF4EBAE12E74FF0FF3C39
:1009000006E000BF4FF0010C02E000BF4FF0010C09
:100910004DF804CD4FEA410C7FEA6C5C4FEA430C82
:1009200018BF7FEA6C5C1BD001B050EA410C0CBFD1
:1009300052EA430C91EA030F02BF90EA020F002033
:10094000704710F1000F91EA030F58BF994208BF9A
:1009500090422CBFD8176FEAE37040F00100704757
:100960004FEA410C7FEA6C5C02D150EA013C07D1AE
:100970004FEA430C7FEA6C5CD6D152EA033CD3D0F9
:100980005DF8040B704700BF8446104662468C46F3
:100990001946634600E000BF01B5FFF7B7FF002826
:1009A00048BF10F1000F01BD4DF808EDFFF7F4FF4F
:1009B0000CBF012000205DF808FB00BF4DF808EDDA
:1009C000FFF7EAFF34BF012000205DF808FB00BFFD
:1009D0004DF808EDFFF7E0FF94BF012000205DF81F
:1009E00008FB00BF4DF808EDFFF7CEFF94BF0120D4
:1009F00000205DF808FB00BF4DF808EDFFF7C4FFCD
:100A000034BF012000205DF808FB00BF4FEA410C15
:100A10007FEA6C5C02D150EA013C0AD14FEA430CF8
:100A20007FEA6C5C02D152EA033C02D14FF0000035
:100A300070474FF0010070474FEA410212F5001273
:100A400015D211D56FF47873B3EB625212D94FEA15
:100A5000C12343F0004343EA505311F0004F23FAFF
:100A600002F018BF404270474FF00000704750EA54
:100A7000013005D111F0004008BF6FF00040704711
:100A80004FF00000704700BF80B483B000AF7860C3
:100A9000054A7B681360054B00221A6000BF0C37C3
:100AA000BD4680BC704700BF00000020000200204F
:100AB00080B400AF094B1B68002B0BDD074B1B6894
:100AC000013B064A1360054B1B68002B02DC044BFC
:100AD00001221A6000BFBD4680BC704700000020A4
:100AE0000002002080B500AF234B1B68022B06D00C
:100AF000022B3ADC002B3AD0012B26D035E01F4BDD
:100B00001B68002B35D01E4800F0FCFE4FF4967198
:100B10001B4800F0A5FF1A4801F0A8F80346194A3F
:100B20001360184B1B681A461749184804F0C8F997
:100B300003469AB24FF47A731449154803F043F808
:100B40004FF49670FFF7A0FF13E012490F4804F02E
:100B5000B7F903469AB24FF47A730C490C4803F084
:100B600032F8054B00221A6004E000BF02E000BF2B
:100B700000E000BF00BF80BD08020020000200208E
:100B80004402002040020020507300081802002098
:100B9000DC0200205C73000880B582B000AF034621
:100BA000FB71FB79002B01D11E23FB71AC4B1B7831
:100BB000212B23D0212BC0F22C81542B00F329812F
:100BC0004B2BC0F226814B3B092B00F2228101A264
:100BD00052F823F0B90D0008130E0008130E000898
:100BE000130E00086D0D0008130E0008130E000808
:100BF000750C0008C10C00080D0D0008FB79013BC5
:100C0000984AD35C522B0FD19749984804F058F971
:100C100003469AB24FF47A739449954802F0D3FF91
:100C20008F4B52221A7017E1FB79013B8D4AD35C3E
:100C30004F2B0FD18F498D4804F042F903469AB2E9
:100C40004FF47A7389498A4802F0BDFF844B4F22E2
:100C50001A7001E18849854804F032F903469AB2D6
:100C60004FF47A738149824802F0ADFF7C4B312208
:100C70001A70F1E0FB79013B7A4AD35C532B0FD118
:100C80007E497A4804F01CF903469AB24FF47A730D
:100C90007649774802F097FF714B53221A70DBE0D8
:100CA0007549724804F00CF903469AB24FF47A730E
:100CB0006E496F4802F087FF694B31221A70CBE012
:100CC000FB79013B674AD35C542B0FD16C496748D1
:100CD00004F0F6F803469AB24FF47A736349644815
:100CE00002F071FF5E4B54221A70B5E062495F4812
:100CF00004F0E6F803469AB24FF47A735B495C4815
:100D000002F061FF564B31221A70A5E0FB79013BDE
:100D1000544AD35C232B19D15A49544804F0D0F8D3
:100D200003469AB24FF47A735049514802F04BFF90
:100D3000554B02221A605549554804F0C1F8484BFA
:100D400031221A700120FFF79FFE85E04A4947488B
:100D500004F0B6F803469AB24FF47A734349444814
:100D600002F031FF3E4B31221A7075E0FB79013BF6
:100D70003C4AD35C4B2B0FD146493C4804F0A0F8C9
:100D800003469AB24FF47A733849394802F01BFF90
:100D9000334B4B221A705FE03749344804F090F827
:100DA00003469AB24FF47A733049314802F00BFF90
:100DB0002B4B31221A704FE0FB79013B294AD35C5F
:100DC000232B16D12F49294804F07AF803469AB20A
:100DD0004FF47A732549264802F0F5FE2A4B01228A
:100DE0001A602D492A4804F06BF81D4B31221A7005
:100DF00032E021491D4804F063F803469AB24FF4EB
:100E00007A731A491A4802F0DEFE154B31221A7025
:100E100022E0FB79013B134AD35C212B0FD11F4900
:100E2000124804F04DF803469AB24FF47A730F4912
:100E30000F4802F0C8FE0A4B21221A700BE0184935
:100E40000A4804F03DF803469AB24FF47A73074912
:100E5000074802F0B8FE00BF00BF0837BD4680BD9E
:100E600004000020740200206C73000818020020A7
:100E7000DC02002078730008847300089473000873
:100E8000A0730008AC73000808020020B8730008C3
:100E900038020020BC730008C8730008CC73000837
:100EA000D873000880B582B000AF78607B681B689B
:100EB000104A934219D1104B1B785A1CD1B20E4ADA
:100EC00011701A460D4B19780D4B99540A4B1B782B
:100ED0001E2B02D1084B00221A700A4B01221A70F5
:100EE00001220649084802F000FF00BF0837BD464E
:100EF00080BD00BF00440040050200200402002025
:100F00007402002006020020DC02002080B500AF41
:100F100000F09AFB00F034F800F036F900F080F8A9
:100F200000F008F900F0BAF80F4802F06BFA01225D
:100F30000E490F4802F0D9FE20210E4801F064FC52
:100F40000D4B1B78012B07D10C4B1B781846FFF774
:100F500023FE094B00221A70FFF7C4FD4FF4FA700C
:100F600000F0D4FBE8E700BF940200200402002058
:100F7000DC020020000801400602002005020020DB
:100F800080B594B000AF07F128032822002118464D
:100F900003F02EFB07F1140300221A605A609A60D6
:100FA000DA601A613B1D00221A605A609A60DA60AA
:100FB0000223BB620123BB631023FB6300237B641A
:100FC00007F12803184601F039FC0346002B01D035
:100FD00000F016F90F237B610023BB610023FB6146
:100FE00000233B6200237B6207F1140300211846B3
:100FF00001F0A4FE0346002B01D000F001F902230A
:101000007B600023FB603B1D184602F031F803466D
:10101000002B01D000F0F4F800BF5037BD4680BD72
:1010200080B584B000AF3B1D00221A605A609A6000
:10103000184B194A1A60174B00229A60154B01226F
:101040001A73144B00221A75124B4FF46022DA61A6
:10105000104B00225A600F4B01221A610D4800F01C
:1010600079FB0346002B01D000F0CAF800237B6017
:101070000123BB600023FB603B1D1946054800F0BF
:10108000D7FE0346002B01D000F0BAF800BF10379E
:10109000BD4680BD440200200024014080B586B0DA
:1010A00000AF07F1080300221A605A609A60DA6004
:1010B0003B4600221A605A601D4B4FF080421A6076
:1010C0001B4B41F63F725A60194B00229A60184B35
:1010D0000922DA60164B00221A61154B00229A6130
:1010E000134802F03FF90346002B01D000F088F8C6
:1010F0004FF48053BB6007F1080319460C4802F017
:10110000D5FA0346002B01D000F07AF800233B60AB
:1011100000237B603B461946054802F09DFC0346D0
:10112000002B01D000F06CF800BF1837BD4680BD21
:101130009402002080B500AF114B124A1A60104B88
:101140004FF416525A600E4B00229A600C4B00224C
:10115000DA600B4B00221A61094B0C225A61084BD2
:1011600000229A61064B0022DA61054802F0DEFC9B
:101170000346002B01D000F043F800BF80BD00BF44
:10118000DC0200200044004080B586B000AF07F1CB
:10119000080300221A605A609A60DA60114B9B695A
:1011A000104A43F0040393610E4B9B6903F0040360
:1011B0007B607B68002220210B4801F00DFB20237F
:1011C000BB600123FB6000233B6102237B6107F1CD
:1011D00008031946044801F085F900BF1837BD46D9
:1011E00080BD00BF001002400008014080B582B001
:1011F00000AF7860FFF75CFC00BF0837BD4680BDDC
:1012000080B400AF72B600BFFEE7000080B485B0C6
:1012100000AF154B9B69144A43F001039361124BD5
:101220009B6903F00103BB60BB680F4BDB690E4A8F
:1012300043F08053D3610C4BDB6903F080537B6038
:101240007B680A4B5B68FB60FB6823F0E063FB6034
:10125000FB6843F08063FB60044AFB68536000BF97
:101260001437BD4680BC70470010024000000140AA
:1012700080B588B000AF786007F1100300221A60D3
:101280005A609A60DA607B681B68184A934229D1D9
:10129000174B9B69164A43F400739361144B9B6987
:1012A00003F40073FB60FB68114B9B69104A43F029
:1012B000040393610E4B9B6903F00403BB60BB689E
:1012C00001233B6103237B6107F1100319460948A1
:1012D00001F008F900220021122001F01CF8122070
:1012E00001F035F800BF2037BD4680BD0024014025
:1012F000001002400008014080B584B000AF786063
:101300007B681B68B3F1804F13D10C4BDB690B4A30
:1013100043F00103D361094BDB6903F00103FB6078
:10132000FB68002200211C2000F0F5FF1C2001F0CA
:101330000EF800BF1037BD4680BD00BF0010024050
:1013400080B588B000AF786007F1100300221A6002
:101350005A609A60DA607B681B681F4A934237D1F3
:101360001E4BDB691D4A43F40033D3611B4BDB6921
:1013700003F40033FB60FB68184B9B69174A43F08A
:1013800004039361154B9B6903F00403BB60BB68C6
:1013900004233B6102237B610323FB6107F11003FC
:1013A00019460F4801F09EF808233B6100237B613A
:1013B0000023BB6107F110031946094801F092F8B8
:1013C00000220021262000F0A6FF262000F0BFFF0B
:1013D00000BF2037BD4680BD0044004000100240E1
:1013E0000008014080B400AFFEE780B400AFFEE724
:1013F00080B400AFFEE780B400AFFEE780B400AF7A
:10140000FEE780B400AF00BFBD4680BC704780B42B
:1014100000AF00BFBD4680BC704780B400AF00BFC6
:10142000BD4680BC704780B500AF00F053F900BFE7
:1014300080BD000080B500AF024800F023FC00BF73
:1014400080BD00BF4402002080B500AF024802F01A
:1014500025F800BF80BD00BF9402002080B500AF1A
:10146000024802F073FC00BF80BD00BFDC02002018
:1014700080B400AF01231846BD4680BC704780B5DC
:1014800082B000AF7860396003F088F80346162216
:101490001A604FF0FF3318460837BD4680BD80B54F
:1014A00082B000AF78604FF0FF317868FFF7E7FF58
:1014B000FEE780B586B000AFF860B9607A600023BF
:1014C0007B610AE0AFF300800146BB685A1CBA603A
:1014D000CAB21A707B6901337B617A697B689A4270
:1014E000F0DB7B6818461837BD4680BD80B586B0F6
:1014F00000AFF860B9607A6000237B6109E0BB68E7
:101500005A1CBA601B781846AFF300807B69013320
:101510007B617A697B689A42F1DB7B6818461837F1
:10152000BD4680BD80B483B000AF78604FF0FF331C
:1015300018460C37BD4680BC704780B483B000AFFE
:10154000786039603B684FF400525A6000231846B7
:101550000C37BD4680BC704780B483B000AF786064
:10156000012318460C37BD4680BC704780B485B057
:1015700000AFF860B9607A60002318461437BD46A2
:1015800080BC704780B586B000AF7860144A154BB8
:10159000D31A7B617B693B61134B1B68002B02D123
:1015A000114B124A1A60104B1A687B6813443A694F
:1015B0009A4207D202F0F2FF03460C221A604FF063
:1015C000FF3309E0084B1B68FB60074B1A687B6818
:1015D0001344054A1360FB6818461837BD4680BDA2
:1015E00000280020000400000C0200203803002026
:1015F00080B400AF00BFBD4680BC70470C480D49A9
:101600000D4A002302E0D458C4500433C4188C425D
:10161000F9D30A4A0A4C002301E013600432A242C3
:10162000FBD3FFF7E5FF02F0BFFFFFF76FFC70474A
:1016300000000020E40100200C780008E4010020F4
:1016400034030020FEE7000080B500AF084B1B68A4
:10165000074A43F010031360032000F051FE0F20EF
:1016600000F008F8FFF7D2FD0023184680BD00BF48
:101670000020024080B582B000AF7860124B1A683B
:10168000124B1B7819464FF47A73B3FBF1F3B2FB9C
:10169000F3F3184600F069FE0346002B01D0012346
:1016A0000EE07B680F2B0AD8002279684FF0FF30DC
:1016B00000F031FE064A7B681360002300E001233E
:1016C00018460837BD4680BD0800002010000020E5
:1016D0000C00002080B400AF054B1B781A46054B68
:1016E0001B681344034A136000BFBD4680BC7047AB
:1016F000100000202003002080B400AF024B1B68C4
:101700001846BD4680BC70472003002080B584B0D9
:1017100000AF7860FFF7F0FFB8607B68FB60FB68A4
:10172000B3F1FF3F05D00A4B1B781A46FB68134400
:10173000FB6000BFFFF7E0FF0246BB68D31AFA6800
:101740009A42F7D800BF00BF1037BD4680BD00BF2A
:101750001000002080B586B000AF78600023FB75D4
:1017600000233B610023BB600023FB607B68002BF0
:1017700001D10123BEE07B689B68002B7B689B6ADC
:10178000002B09D17B680022DA627B68002283F893
:1017900024207868FFF76CFD786800F09BFC034616
:1017A000FB757B689B6A03F01003002B40F0998067
:1017B000FB7D002B40F095807B689B6A23F4885367
:1017C00023F0020343F002027B689A627B685A6846
:1017D0007B68DB691A437B681B7B5B001343BA6839
:1017E0001343BB607B689B68B3F5807F03D07B6845
:1017F0009B68012B02D14FF4807300E000233A690B
:1018000013433B617B681B7D012B19D17B681B7BDC
:10181000002B09D17B689B69013B5A033B69134349
:1018200043F400633B610BE07B689B6A43F020025A
:101830007B689A627B68DB6A43F001027B68DA624C
:101840007B681B685B6823F469417B681B683A69A5
:101850000A435A607B681B689A68284B13407A6871
:101860001268B9680B4393607B689B68B3F5807F0F
:1018700003D07B689B68012B04D17B681B69013B0B
:101880001B05FB607B681B68DB6A23F470017B68C7
:101890001B68FA680A43DA627B681B689A68184B0F
:1018A0001340BA689A420BD17B680022DA627B68E7
:1018B0009B6A23F0030343F001027B689A6218E0FD
:1018C0007B689B6A23F0120343F010027B689A62E4
:1018D0007B68DB6A43F001027B68DA620123FB75F7
:1018E00007E07B689B6A43F010027B689A620123E1
:1018F000FB75FB7D18461837BD4680BDFDF7E1FF3F
:10190000FE0E1FFF80B584B000AF78600023FB732C
:101910007B6893F82430012B01D1022398E07B6887
:10192000012283F82420786800F07AFB0346FB73D9
:10193000FB7B002B40F087807B689B6A23F440731D
:1019400023F0010343F480727B689A627B681B6812
:10195000414A934205D1414B5B6803F47023002B4D
:1019600015D17B689B6A23F480127B689A627B683E
:101970001B685B6803F48063002B26D07B689B6A3E
:1019800023F4405343F480527B689A621DE07B68E5
:101990009B6A43F480127B689A627B681B682F4ABB
:1019A000934204D07B681B682B4A93420DD12B4B8A
:1019B0005B6803F48063002B07D07B689B6A23F489
:1019C000405343F480527B689A627B689B6A03F4BD
:1019D0008053002B06D07B68DB6A23F006027B680D
:1019E000DA6202E07B680022DA627B68002283F818
:1019F00024207B681B686FF002021A607B681B68FA
:101A00009B6803F46023B3F5602F13D17B681B68D8
:101A1000114A934205D1114B5B6803F47023002BEC
:101A200008D17B681B689A687B681B6842F4A00237
:101A30009A600CE07B681B689A687B681B6842F4BC
:101A400080129A6003E07B68002283F82420FB7BED
:101A500018461037BD4680BD0028014000240140D3
:101A600090B587B000AF7860396000237B610023B8
:101A7000FB6000233B61FFF73FFE78617B681B68DA
:101A80009B6803F48073002B0BD07B689B6A43F048
:101A900020027B689A627B68002283F8242001235D
:101AA000D3E07B681B685B6803F48073002B31D143
:101AB0007B681B68DB6A03F47003002B2AD121E0EA
:101AC0003B68B3F1FF3F1DD03B68002B07D0FFF709
:101AD00013FE02467B69D31A3A689A4212D27B6897
:101AE0001B681B6803F00203002B0BD17B689B6A09
:101AF00043F004027B689A627B68002283F824200A
:101B00000323A2E07B681B681B6803F00203002B21
:101B1000D6D070E04F4B1C68022001F05FFB0346FB
:101B2000B4FBF3F27B681B6819694B4B0B40002B2D
:101B300018D17B681B68D968484B0B40002B11D12A
:101B40007B681B681969464B0B40002B08D17B68EA
:101B50001B68D968434B0B40002B01D1142320E0B4
:101B600029231EE07B681B6819693D4B0B40002B45
:101B700006D17B681B68D9683A4B0B40002B0DD00F
:101B80007B681B681969384B0B40002B08D17B68B8
:101B90001B68D968344B0B40002B01D1542300E063
:101BA000FC2302FB03F33B6121E03B68B3F1FF3F01
:101BB0001AD03B68002B07D0FFF79EFD02467B69D9
:101BC000D31A3A689A420FD2FB683A699A420BD903
:101BD0007B689B6A43F004027B689A627B68002200
:101BE00083F82420032330E0FB680133FB60FB68AB
:101BF0003A699A42D9D87B681B686FF012021A6062
:101C00007B689B6A43F400727B689A627B681B68FE
:101C10009B6803F46023B3F5602F15D17B681B7BB1
:101C2000002B11D17B689B6A23F480727B689A62D7
:101C30007B689B6A03F48053002B05D17B689B6A09
:101C400043F001027B689A62002318461C37BD46A8
:101C500090BD00BF0800002024499224244992002E
:101C600092244912922449004992240080B483B0FE
:101C700000AF78607B681B68DB6C18460C37BD468C
:101C800080BC704780B582B000AF78607B681B680D
:101C90005B6803F02003202B40D17B681B681B6826
:101CA00003F00203022B39D17B689B6A03F0100317
:101CB000002B05D17B689B6A43F400727B689A62B3
:101CC0007B681B689B6803F46023B3F5602F1DD10C
:101CD0007B681B7B002B19D17B681B685A687B686B
:101CE0001B6822F020025A607B689B6A23F4807292
:101CF0007B689A627B689B6A03F48053002B05D152
:101D00007B689B6A43F001027B689A62786800F006
:101D10007CF87B681B686FF012021A607B681B6896
:101D20005B6803F08003802B4FD17B681B681B68C6
:101D300003F00403042B48D17B689B6A03F0100373
:101D4000002B05D17B689B6A43F400527B689A6242
:101D50007B681B689B6803F4E043B3F5E04F12D047
:101D60007B681B685B6803F48063002B25D17B686C
:101D70001B689B6803F46023B3F5602F1DD17B685B
:101D80001B7B002B19D17B681B685A687B681B681A
:101D900022F080025A607B689B6A23F480527B6841
:101DA0009A627B689B6A03F48073002B05D17B6881
:101DB0009B6A43F001027B689A62786800F0CBF975
:101DC0007B681B686FF00C021A607B681B685B689D
:101DD00003F04003402B14D17B681B681B6803F0A1
:101DE0000103012B0DD17B689B6A43F480327B6831
:101DF0009A62786800F012F87B681B686FF0010245
:101E00001A6000BF0837BD4680BD80B483B000AF04
:101E1000786000BF0C37BD4680BC704780B483B08B
:101E200000AF786000BF0C37BD4680BC7047000033
:101E300080B485B000AF786039600023FB73002365
:101E4000BB607B6893F82430012B01D10223DCE0D6
:101E50007B68012283F824203B685B68062B1CD832
:101E60007B681B68596B3B685A6813469B00134498
:101E7000053B1F2202FA03F3DB4319403B68186855
:101E80003B685A6813469B001344053B00FA03F273
:101E90007B681B680A435A633CE03B685B680C2B19
:101EA0001CD87B681B68196B3B685A6813469B00FB
:101EB0001344233B1F2202FA03F3DB4319403B6820
:101EC00018683B685A6813469B001344233B00FA8A
:101ED00003F27B681B680A431A631BE07B681B687C
:101EE000D96A3B685A6813469B001344413B1F2242
:101EF00002FA03F3DB4319403B6818683B685A68F1
:101F000013469B001344413B00FA03F27B681B68B5
:101F10000A43DA623B681B68092B1CD97B681B6883
:101F2000D9683B681A6813465B0013441E3B0722BE
:101F300002FA03F3DB4319403B6898683B681A6870
:101F400013465B0013441E3B00FA03F27B681B68D8
:101F50000A43DA6019E07B681B6819693B681A68F4
:101F600013465B001344072202FA03F3DB431940D4
:101F70003B6898683B681A6813465B00134400FA94
:101F800003F27B681B680A431A613B681B68102BCD
:101F900003D03B681B68112B32D17B681B681D4A3C
:101FA000934225D17B681B689B6803F40003002BD8
:101FB00026D17B681B689A687B681B6842F4000224
:101FC0009A603B681B68102B1AD1134B1B68134A8D
:101FD000A2FB03239A0C13469B0013445B00BB60D7
:101FE00002E0BB68013BBB60BB68002BF9D107E096
:101FF0007B689B6A43F020027B689A620123FB7333
:102000007B68002283F82420FB7B18461437BD46EA
:1020100080BC7047002401400800002083DE1B4381
:1020200080B584B000AF78600023FB600023BB6004
:102030007B681B689B6803F00103012B40D07B6821
:102040001B689A687B681B6842F001029A601F4B0C
:102050001B681F4AA2FB03239B0CBB6002E0BB680A
:10206000013BBB60BB68002BF9D1FFF745FBF86073
:102070001FE0FFF741FB0246FB68D31A022B18D979
:102080007B681B689B6803F00103012B11D07B6800
:102090009B6A43F010027B689A627B68DB6A43F0BC
:1020A00001027B68DA627B68002283F82420012326
:1020B00007E07B681B689B6803F00103012BD8D104
:1020C000002318461037BD4680BD00BF0800002021
:1020D00083DE1B4380B584B000AF78600023FB60D3
:1020E0007B681B689B6803F00103012B2ED17B6882
:1020F0001B689A687B681B6822F001029A60FFF7F0
:10210000FBFAF8601BE0FFF7F7FA0246FB68D31A08
:10211000022B14D97B681B689B6803F00103012B19
:102120000DD17B689B6A43F010027B689A627B68E2
:10213000DB6A43F001027B68DA62012307E07B6817
:102140001B689B6803F00103012BDCD000231846B9
:102150001037BD4680BD80B483B000AF786000BF4B
:102160000C37BD4680BC704780B485B000AF786046
:102170007B6803F00703FB600C4BDB68BB60BA684D
:102180004FF6FF031340BB60FB681A02BB681343A2
:1021900043F0BF6343F40033BB60044ABB68D360C1
:1021A00000BF1437BD4680BC704700BF00ED00E0A3
:1021B00080B400AF044BDB681B0A03F0070318462A
:1021C000BD4680BC704700BF00ED00E080B483B026
:1021D00000AF0346FB7197F90730002B0BDBFB794F
:1021E00003F01F02064997F907305B09012000FA46
:1021F00002F241F8232000BF0C37BD4680BC704777
:1022000000E100E080B483B000AF03463960FB71A9
:1022100097F90730002B0ADB3B68DAB20C4997F9D3
:1022200007301201D2B20B4483F800230AE03B6866
:10223000DAB20849FB7903F00F03043B1201D2B272
:102240000B441A7600BF0C37BD4680BC704700BFF8
:1022500000E100E000ED00E080B489B000AFF8607C
:10226000B9607A60FB6803F00703FB61FB69C3F1A7
:102270000703042B28BF0423BB61FB690433062B2F
:1022800002D9FB69033B00E000237B614FF0FF3282
:10229000BB6902FA03F3DA43BB681A407B699A40D0
:1022A0004FF0FF317B6901FA03F3D9437B680B40A0
:1022B000134318462437BD4680BC704780B582B0B2
:1022C00000AF78607B68013BB3F1807F01D30123CD
:1022D0000FE00A4A7B68013B53600F214FF0FF304B
:1022E000FFF790FF054B00229A60044B07221A600B
:1022F000002318460837BD4680BD00BF10E000E04F
:1023000080B582B000AF78607868FFF72DFF00BF1E
:102310000837BD4680BD80B586B000AF0346B960C2
:102320007A60FB7300237B61FFF742FF78617A6874
:10233000B9687869FFF790FF024697F90F301146A8
:102340001846FFF75FFF00BF1837BD4680BD80B558
:1023500082B000AF0346FB7197F907301846FFF7CC
:1023600035FF00BF0837BD4680BD80B582B000AFE5
:1023700078607868FFF7A2FF034618460837BD4625
:1023800080BD80B485B000AF78600023FB737B68AC
:1023900093F82130022B08D07B6804229A637B6873
:1023A000002283F82020012320E07B681B681A6844
:1023B0007B681B6822F00E021A607B681B681A6833
:1023C0007B681B6822F001021A607B681A6C7B68CC
:1023D000DB6B012101FA02F25A607B68012283F86B
:1023E00021207B68002283F82020FB7B18461437CD
:1023F000BD4680BC7047000080B584B000AF7860F7
:102400000023FB737B6893F82130022B05D07B6897
:1024100004229A630123FB7351E07B681B681A68EE
:102420007B681B6822F00E021A607B681B681A68C2
:102430007B681B6822F001021A607B681B68224AD5
:10244000934229D07B681B68204A934222D07B6844
:102450001B681F4A93421AD07B681B681D4A93422F
:1024600012D07B681B681C4A93420AD07B681B68A9
:102470001A4A934202D14FF480130EE04FF080735A
:102480000BE04FF4803308E04FF4805305E04FF445
:10249000807302E0102300E00123114A53607B683F
:1024A000012283F821207B68002283F820207B68AA
:1024B0005B6B002B03D07B685B6B78689847FB7B7A
:1024C00018461037BD4680BD080002401C0002407F
:1024D0003000024044000240580002406C000240BC
:1024E0000000024080B48BB000AF786039600023F8
:1024F0007B6200233B6248E101227B6A02FA03F31C
:10250000FB613B681B68FA691340BB61BA69FB69F0
:102510009A4240F037813B685B68A34A93425ED0A1
:10252000A14A934275D8A14A934258D09F4A9342F8
:102530006FD89F4A934252D09D4A934269D89D4A90
:1025400093424CD09B4A934263D89B4A934246D0D5
:10255000994A93425DD8122B2AD8122B59D801A23E
:1025600052F823F0DF250008B9250008CB25000824
:102570000D2600081326000813260008132600085D
:102580001326000813260008132600081326000847
:102590001326000813260008132600081326000837
:1025A0001326000813260008C1250008D5250008B9
:1025B000824A934213D02CE03B68DB683B6229E0FF
:1025C0003B68DB6804333B6224E03B68DB6808332C
:1025D0003B621FE03B68DB680C333B621AE03B6800
:1025E0009B68002B02D104233B6213E03B689B688D
:1025F000012B05D108233B627B68FA691A6109E067
:1026000008233B627B68FA695A6103E000233B625E
:1026100000E000BFBB69FF2B01D87B6801E07B684D
:1026200004337B61BB69FF2B02D87B6A9B0002E00D
:102630007B6A083B9B003B617B691A680F213B6901
:1026400001FA03F3DB431A40396A3B6901FA03F3E9
:102650001A437B691A603B685B6803F08053002B68
:1026600000F09080564B9B69554A43F001039361FB
:10267000534B9B6903F00103BB60BB68514A7B6A03
:102680009B08023352F82330FB607B6A03F003039C
:102690009B000F2202FA03F3DB43FA681340FB604E
:1026A0007B68494A93420DD07B68484A934207D0E1
:1026B0007B68474A934201D1022304E0032302E0EE
:1026C000012300E000237A6A02F0030292009340A3
:1026D000FA681343FB603B497B6A9B080233FA6844
:1026E00041F823203B685B6803F48033002B06D05D
:1026F000384B1A683749BB6913430B6006E0354B0A
:102700001A68BB69DB43334913400B603B685B6865
:1027100003F40033002B06D02E4B5A682D49BB69B9
:1027200013434B6006E02B4B5A68BB69DB432949D6
:1027300013404B603B685B6803F48013002B06D0AA
:10274000244B9A682349BB6913438B6006E0214BF5
:102750009A68BB69DB431F4913408B603B685B6829
:1027600003F40013002B06D01A4BDA681949BB6931
:102770001343CB6006E0174BDA68BB69DB431549AE
:102780001340CB607B6A01337B623B681A687B6ACB
:1027900022FA03F3002B7FF4AFAE00BF00BF2C374B
:1027A000BD4680BC704700BF0000321000003110F1
:1027B0000000221000002110000012100000111073
:1027C000001002400000014000080140000C0140E0
:1027D000001001400004014080B483B000AF786075
:1027E0000B467B8013467B707B78002B03D07A8866
:1027F0007B681A6103E07B881A047B681A6100BF5A
:102800000C37BD4680BC704780B485B000AF78609F
:102810000B467B807B68DB68FB607A88FB68134033
:102820001A04FB68D9437B880B401A437B681A6102
:1028300000BF1437BD4680BC7047000080B586B02D
:1028400000AF78607B68002B01D101236CE27B68CC
:102850001B6803F00103002B00F08780924B5B683C
:1028600003F00C03042B0CD08F4B5B6803F00C03BC
:10287000082B12D18C4B5B6803F48033B3F5803F97
:102880000BD1894B1B6803F40033002B6CD07B68A1
:102890005B68002B68D1012346E27B685B68B3F577
:1028A000803F06D1804B1B687F4A43F4803313601E
:1028B0002EE07B685B68002B0CD17B4B1B687A4A4F
:1028C00023F480331360784B1B68774A23F480230A
:1028D00013601DE07B685B68B3F5A02F0CD1724BD1
:1028E0001B68714A43F4802313606F4B1B686E4A68
:1028F00043F4803313600BE06B4B1B686A4A23F48C
:1029000080331360684B1B68674A23F4802313608D
:102910007B685B68002B13D0FEF7EEFE386108E0A1
:10292000FEF7EAFE02463B69D31A642B01D9032362
:10293000FAE15D4B1B6803F40033002BF0D014E088
:10294000FEF7DAFE386108E0FEF7D6FE02463B6984
:10295000D31A642B01D90323E6E1534B1B6803F41C
:102960000033002BF0D100E000BF7B681B6803F050
:102970000203002B63D04C4B5B6803F00C03002B6D
:102980000BD0494B5B6803F00C03082B1CD1464B62
:102990005B6803F48033002B16D1434B1B6803F0B4
:1029A0000203002B05D07B681B69012B01D001239A
:1029B000BAE13D4B1B6823F0F8027B685B69DB00E2
:1029C000394913430B603AE07B681B69002B20D028
:1029D000364B01221A60FEF78FFE386108E0FEF7E1
:1029E0008BFE02463B69D31A022B01D903239BE1DC
:1029F0002D4B1B6803F00203002BF0D02A4B1B6801
:102A000023F0F8027B685B69DB00274913430B6006
:102A100015E0264B00221A60FEF76EFE386108E0D2
:102A2000FEF76AFE02463B69D31A022B01D9032343
:102A30007AE11D4B1B6803F00203002BF0D17B6889
:102A40001B6803F00803002B3AD07B689B69002BBE
:102A500019D0174B01221A60FEF74EFE386108E0CC
:102A6000FEF74AFE02463B69D31A022B01D9032323
:102A70005AE10D4B5B6A03F00203002BF0D00120FA
:102A800000F0D8FA1CE00A4B00221A60FEF734FE70
:102A900038610FE0FEF730FE02463B69D31A022B85
:102AA00008D9032340E100BF001002400000424269
:102AB000800442429E4B5B6A03F00203002BE9D183
:102AC0007B681B6803F00403002B00F0A680002342
:102AD000FB75974BDB6903F08053002B0DD1944BB2
:102AE000DB69934A43F08053D361914BDB6903F078
:102AF0008053BB60BB680123FB758E4B1B6803F4DE
:102B00008073002B18D18B4B1B688A4A43F4807367
:102B10001360FEF7F1FD386108E0FEF7EDFD0246B7
:102B20003B69D31A642B01D90323FDE0814B1B6859
:102B300003F48073002BF0D07B68DB68012B06D197
:102B40007B4B1B6A7A4A43F0010313622DE07B68DA
:102B5000DB68002B0CD1764B1B6A754A23F001030E
:102B60001362734B1B6A724A23F0040313621CE066
:102B70007B68DB68052B0CD16D4B1B6A6C4A43F0FC
:102B8000040313626A4B1B6A694A43F00103136230
:102B90000BE0674B1B6A664A23F001031362644B28
:102BA0001B6A634A23F0040313627B68DB68002B13
:102BB00015D0FEF7A1FD38610AE0FEF79DFD024643
:102BC0003B69D31A41F28832934201D90323ABE027
:102BD000574B1B6A03F00203002BEED014E0FEF704
:102BE0008BFD38610AE0FEF787FD02463B69D31A88
:102BF00041F28832934201D9032395E04C4B1B6A82
:102C000003F00203002BEED1FB7D012B05D1484BD5
:102C1000DB69474A23F08053D3617B68DB69002B73
:102C200000F08180424B5B6803F00C03082B61D0FD
:102C30007B68DB69022B46D13F4B00221A60FEF70E
:102C40005BFD386108E0FEF757FD02463B69D31A89
:102C5000022B01D9032367E0354B1B6803F0007397
:102C6000002BF0D17B681B6AB3F5803F08D1304B55
:102C70005B6823F400327B689B682D4913434B60EB
:102C80002B4B5B6823F474127B68196A7B685B6A60
:102C90000B43274913434B60274B01221A60FEF771
:102CA0002BFD386108E0FEF727FD02463B69D31A89
:102CB000022B01D9032337E01D4B1B6803F000737F
:102CC000002BF0D02FE01C4B00221A60FEF714FD01
:102CD000386108E0FEF710FD02463B69D31A022B6B
:102CE00001D9032320E0124B1B6803F00073002B73
:102CF000F0D118E07B68DB69012B01D1012313E0DF
:102D00000B4B5B68FB60FB6803F480327B681B6ADB
:102D10009A4206D1FB6803F470127B685B6A9A42A0
:102D200001D0012300E0002318461837BD4680BDBE
:102D300000100240007000406000424280B584B044
:102D400000AF786039607B68002B01D10123D0E0AF
:102D50006A4B1B6803F007033A689A4210D9674B25
:102D60001B6823F0070265493B6813430B60634B04
:102D70001B6803F007033A689A4201D00123B8E0C8
:102D80007B681B6803F00203002B20D07B681B6864
:102D900003F00403002B05D0594B5B68584A43F4F9
:102DA000E06353607B681B6803F00803002B05D0C9
:102DB000534B5B68524A43F460535360504B5B681B
:102DC00023F0F0027B689B684D4913434B607B689E
:102DD0001B6803F00103002B40D07B685B68012B6C
:102DE00007D1474B1B6803F40033002B15D1012397
:102DF0007FE07B685B68022B07D1414B1B6803F0C7
:102E00000073002B09D1012373E03D4B1B6803F0D5
:102E10000203002B01D101236BE0394B5B6823F0E7
:102E200003027B685B68364913434B60FEF764FC22
:102E3000F8600AE0FEF760FC0246FB68D31A41F234
:102E40008832934201D9032353E02D4B5B6803F092
:102E50000C027B685B689B009A42EBD1274B1B6896
:102E600003F007033A689A4210D2244B1B6823F000
:102E7000070222493B6813430B60204B1B6803F099
:102E800007033A689A4201D0012332E07B681B684D
:102E900003F00403002B08D0194B5B6823F4E062B5
:102EA0007B68DB68164913434B607B681B6803F043
:102EB0000803002B09D0124B5B6823F460527B6837
:102EC0001B69DB000E4913434B6000F021F80246FA
:102ED0000B4B5B681B0903F00F030A49CB5C22FA1A
:102EE00003F3094A1360094B1B681846FEF7C2FB3F
:102EF000002318461037BD4680BD00BF00200240A9
:102F00000010024008740008080000200C00002097
:102F100090B48AB000AF2A4B3C1D0FCB84E80F0061
:102F200040F201233B800023FB610023BB610023AF
:102F30007B6200237B6100233B62224B5B68FB6169
:102F4000FB6903F00C03042B02D0082B03D02DE007
:102F50001D4B3B622DE0FB699B0C03F00F0307F157
:102F60002802134413F8243C7B61FB6903F480338B
:102F7000002B13D0134B5B685B0C03F0010307F1CC
:102F80002802134413F8283CBB617B690E4A02FBFC
:102F900003F2BB69B2FBF3F37B6204E07B690B4A8B
:102FA00002FB03F37B627B6A3B6202E0064B3B62FF
:102FB00000BF3B6A18462837BD4690BC704700BF2B
:102FC000E87300080010024000127A0000093D007A
:102FD00080B400AF024B1B681846BD4680BC7047EA
:102FE0000800002080B500AFFFF7F2FF0246054B56
:102FF0005B681B0A03F007030349CB5C22FA03F367
:10300000184680BD001002401874000880B500AF5B
:10301000FFF7DEFF0246054B5B68DB0A03F00703A0
:103020000349CB5C22FA03F3184680BD001002402E
:103030001874000880B485B000AF78600A4B1B6834
:103040000A4AA2FB03235B0A7A6802FB03F3FB60D4
:1030500000BFFB685A1EFA60002BF9D100BF00BF09
:103060001437BD4680BC704708000020D34D621065
:1030700080B586B000AF786000233B610023FB6021
:103080007B681B6803F00103002B7DD00023FB75D8
:103090004F4BDB6903F08053002B0DD14C4BDB69A8
:1030A0004B4A43F08053D361494BDB6903F08053B3
:1030B000BB60BB680123FB75464B1B6803F4807340
:1030C000002B18D1434B1B68424A43F480731360B2
:1030D000FEF712FB386108E0FEF70EFB02463B6983
:1030E000D31A642B01D903236DE03A4B1B6803F418
:1030F0008073002BF0D0364B1B6A03F44073FB60E7
:10310000FB68002B2ED07B685B6803F44073FA6881
:103110009A4227D02E4B1B6A23F44073FB602E4B40
:1031200001221A602C4B00221A60294AFB681362A4
:10313000FB6803F00103002B14D0FEF7DDFA3861C1
:103140000AE0FEF7D9FA02463B69D31A41F2883207
:10315000934201D9032336E01D4B1B6A03F002039F
:10316000002BEED01A4B1B6A23F440727B685B681D
:10317000174913430B62FB7D012B05D1144BDB690F
:10318000134A23F08053D3617B681B6803F002036A
:10319000002B08D00E4B5B6823F440427B689B6891
:1031A0000B4913434B607B681B6803F01003002B33
:1031B00008D0074B5B6823F480027B68DB68044916
:1031C00013434B60002318461837BD4680BD00BF2F
:1031D00000100240007000404004424290B58DB0A3
:1031E00000AF78605A4B07F10C040FCB84E80F0056
:1031F00040F201233B8100237B620023FB6200231A
:103200003B620023FB610023BB627B68102B0AD06A
:103210007B68102B00F291807B68012B4CD07B687F
:10322000022B7CD089E04B4B5B68FB61494B1B68F0
:1032300003F08073002B00F08280FB699B0C03F08D
:103240000F0307F13002134413F8243C3B62FB697F
:1032500003F48033002B18D03E4B5B685B0C03F00B
:10326000010307F13002134413F8283C7B62FB6929
:1032700003F48033002B0DD0374A7B6AB2FBF3F2A4
:103280003B6A02FB03F3FB6204E03B6A334A02FB46
:1032900003F3FB622F4B5B6803F48003B3F5800FED
:1032A00002D1FB6ABB624AE0FB6A5B002C4AA2FBCC
:1032B00003235B08BB6242E0264B1B6AFB61FB6990
:1032C00003F44073B3F5807F08D1FB6903F0020378
:1032D000002B03D04FF40043BB621FE0FB6903F4F3
:1032E0004073B3F5007F09D11A4B5B6A03F0020308
:1032F000002B03D049F64043BB620FE0FB6903F4A7
:103300004073B3F5407F1CD1124B1B6803F40033AC
:10331000002B16D04FF22443BB6212E011E0FFF7FE
:1033200075FE02460B4B5B689B0B03F003030133F6
:103330005B00B2FBF3F3BB6204E000BF02E000BF3E
:1033400000E000BFBB6A18463437BD4690BD00BFE1
:10335000F87300080010024000127A0000093D00D6
:10336000ABAAAAAA80B582B000AF78607B68002BB8
:1033700001D1012341E07B6893F83D30DBB2002BA3
:1033800006D17B68002283F83C207868FDF7B4FF03
:103390007B68022283F83D207B681A687B680433CF
:1033A0001946104600F06AFA7B68012283F846202D
:1033B0007B68012283F83E207B68012283F83F204E
:1033C0007B68012283F840207B68012283F841203A
:1033D0007B68012283F842207B68012283F8432026
:1033E0007B68012283F844207B68012283F8452012
:1033F0007B68012283F83D20002318460837BD462C
:1034000080BD000080B485B000AF78607B6893F821
:103410003D30DBB2012B01D0012335E07B68022275
:1034200083F83D207B681B68DA687B681B6842F084
:103430000102DA607B681B68164A934209D07B68F8
:103440001B68B3F1804F04D07B681B68124A93421B
:1034500011D17B681B689B6803F00703FB60FB6866
:10346000062B10D07B681B681A687B681B6842F0CB
:1034700001021A6007E07B681B681A687B681B689A
:1034800042F001021A60002318461437BD4680BC82
:10349000704700BF002C01400004004080B582B09E
:1034A00000AF78607B681B681B6903F00203022B86
:1034B00022D17B681B68DB6803F00203022B1BD15F
:1034C0007B681B686FF002021A617B6801221A7721
:1034D0007B681B689B6903F00303002B03D07868AB
:1034E00000F0B1F905E0786800F0A4F9786800F020
:1034F000B3F97B6800221A777B681B681B6903F0AD
:103500000403042B22D17B681B68DB6803F00403EF
:10351000042B1BD17B681B686FF004021A617B6867
:1035200002221A777B681B689B6903F44073002BA7
:1035300003D0786800F087F905E0786800F07AF940
:10354000786800F089F97B6800221A777B681B682D
:103550001B6903F00803082B22D17B681B68DB681A
:1035600003F00803082B1BD17B681B686FF008026F
:103570001A617B6804221A777B681B68DB6903F099
:103580000303002B03D0786800F05DF905E078684C
:1035900000F050F9786800F05FF97B6800221A7734
:1035A0007B681B681B6903F01003102B22D17B681A
:1035B0001B68DB6803F01003102B1BD17B681B68B2
:1035C0006FF010021A617B6808221A777B681B680B
:1035D000DB6903F44073002B03D0786800F033F903
:1035E00005E0786800F026F9786800F035F97B6826
:1035F00000221A777B681B681B6903F00103012B0B
:103600000ED17B681B68DB6803F00103012B07D137
:103610007B681B686FF001021A617868FDF7E6FDB0
:103620007B681B681B6903F08003802B0ED17B68CD
:103630001B68DB6803F08003802B07D17B681B6865
:103640006FF080021A61786800F067FA7B681B6887
:103650001B6903F04003402B0ED17B681B68DB68BD
:1036600003F04003402B07D17B681B686FF04002DA
:103670001A61786800F0F9F87B681B681B6903F031
:103680002003202B0ED17B681B68DB6803F020032E
:10369000202B07D17B681B686FF020021A617868C5
:1036A00000F032FA00BF0837BD4680BD80B584B057
:1036B00000AF786039607B6893F83C30012B01D112
:1036C0000223B3E07B68012283F83C207B6802225E
:1036D00083F83D207B681B689B68FB60FB6823F0D8
:1036E0007703FB60FB6823F47F43FB607B681B6808
:1036F000FA689A603B681B68B3F5005F3ED0B3F58B
:10370000005F00F28780B3F5805F00F08580B3F53D
:10371000805F7FD8702B1AD0702B7BD8602B50D055
:10372000602B77D8502B3CD0502B73D8402B58D0DF
:10373000402B6FD8302B64D0302B6BD8202B60D02F
:10374000202B67D8002B5CD0102B5AD062E07B680E
:1037500018683B6899683B685A683B68DB6800F00A
:103760005CF97B681B689B68FB60FB6843F0770330
:10377000FB607B681B68FA689A604EE07B6818689B
:103780003B6899683B685A683B68DB6800F045F91C
:103790007B681B689A687B681B6842F480429A6069
:1037A0003BE07B6818683B6859683B68DB681A46F1
:1037B00000F0BCF87B681B685021184600F013F934
:1037C0002BE07B6818683B6859683B68DB681A46E1
:1037D00000F0DAF87B681B686021184600F003F9F6
:1037E0001BE07B6818683B6859683B68DB681A46D1
:1037F00000F09CF87B681B684021184600F0F3F845
:103800000BE07B681A683B681B681946104600F09D
:10381000EAF802E000BF00E000BF7B68012283F805
:103820003D207B68002283F83C2000231846103797
:10383000BD4680BD80B483B000AF786000BF0C3758
:10384000BD4680BC704780B483B000AF786000BFD5
:103850000C37BD4680BC704780B483B000AF786041
:1038600000BF0C37BD4680BC704780B483B000AF4A
:10387000786000BF0C37BD4680BC704780B485B00F
:1038800000AF786039607B681B68FB607B68254A05
:10389000934207D07B68B3F1804F03D07B68224A04
:1038A000934208D1FB6823F07003FB603B685B68C0
:1038B000FA681343FB607B681A4A934207D07B681F
:1038C000B3F1804F03D07B68174A934208D1FB685D
:1038D00023F44073FB603B68DB68FA681343FB60CA
:1038E000FB6823F080023B685B691343FB607B68E5
:1038F000FA681A603B689A687B68DA623B681A6803
:103900007B689A627B68074A934203D13B681A69D5
:103910007B681A637B6801225A6100BF1437BD4679
:1039200080BC7047002C01400004004080B487B088
:1039300000AFF860B9607A60FB681B6A7B61FB6866
:103940001B6A23F00102FB681A62FB689B693B61FA
:103950003B6923F0F0033B617B681B013A69134329
:103960003B617B6923F00A037B617A69BB6813437F
:103970007B61FB683A699A61FB687A691A6200BFE9
:103980001C37BD4680BC704780B487B000AFF8607C
:10399000B9607A60FB681B6A23F01002FB681A6248
:1039A000FB689B697B61FB681B6A3B617B6923F455
:1039B00070437B617B681B037A6913437B613B69BE
:1039C00023F0A0033B61BB681B013A6913433B61D1
:1039D000FB687A699A61FB683A691A6200BF1C3712
:1039E000BD4680BC704780B485B000AF7860396058
:1039F0007B689B68FB60FB6823F07003FB603A68A0
:103A0000FB68134343F00703FB607B68FA689A6026
:103A100000BF1437BD4680BC704780B487B000AF8C
:103A2000F860B9607A603B60FB689B687B617B698A
:103A300023F47F437B613B681A027B681A43BB68AF
:103A400013437A6913437B61FB687A699A6000BF0C
:103A50001C37BD4680BC704780B485B000AF78602D
:103A600039607B6893F83C30012B01D1022341E09F
:103A70007B68012283F83C207B68022283F83D208A
:103A80007B681B685B68FB607B681B689B68BB602E
:103A9000FB6823F07003FB603B681B68FA68134304
:103AA000FB607B681B68FA685A607B681B68144A75
:103AB000934209D07B681B68B3F1804F04D07B68C8
:103AC0001B68104A93420CD1BB6823F08003BB6093
:103AD0003B685B68BA681343BB607B681B68BA6865
:103AE0009A607B68012283F83D207B68002283F87E
:103AF0003C20002318461437BD4680BC704700BFE9
:103B0000002C01400004004080B483B000AF786016
:103B100000BF0C37BD4680BC704780B483B000AF97
:103B2000786000BF0C37BD4680BC704780B582B05E
:103B300000AF78607B68002B01D101233FE07B68F8
:103B400093F83D30DBB2002B06D17B68002283F86E
:103B50003C207868FDF7F4FB7B68242283F83D2045
:103B60007B681B68DA687B681B6822F40052DA60A5
:103B7000786800F085FC7B681B681A697B681B68A5
:103B800022F490421A617B681B685A697B681B6843
:103B900022F02A025A617B681B68DA687B681B681E
:103BA00042F40052DA607B6800221A647B682022AB
:103BB00083F83D207B68202283F83E2000231846AE
:103BC0000837BD4680BD80B58AB002AFF860B960E5
:103BD0003B601346FB8000237B61FB6893F83D301C
:103BE000DBB2202B7CD1BB68002B02D0FB88002BE2
:103BF00001D1012375E0FB6893F83C30012B01D122
:103C000002236EE0FB68012283F83C20FB6800225F
:103C10001A64FB68212283F83D20FDF76DFD786171
:103C2000FB68FA889A84FB68FA88DA84FB689B68E8
:103C3000B3F5805F08D1FB681B69002B04D100231A
:103C4000FB61BB68BB6103E0BB68FB610023BB6138
:103C5000FB68002283F83C202AE03B6800937B69E4
:103C600000228021F86800F038FA0346002B01D0CA
:103C7000032336E0FB69002B0BD1BB691B881A4676
:103C8000FB681B68C2F308025A60BB690233BB6160
:103C900007E0FB691A78FB681B685A60FB6901330F
:103CA000FB61FB68DB8C9BB2013B9AB2FB68DA8458
:103CB000FB68DB8C9BB2002BCFD13B6800937B6908
:103CC00000224021F86800F008FA0346002B01D0DA
:103CD000032306E0FB68202283F83D20002300E058
:103CE000022318462037BD4680BD80B584B000AFA2
:103CF000F860B9601346FB80FB6893F83E30DBB296
:103D0000202B1DD1BB68002B02D0FB88002B01D1DA
:103D1000012316E0FB6893F83C30012B01D102230C
:103D20000FE0FB68012283F83C20FB6800221A6345
:103D3000FB881A46B968F86800F019FA034600E0F3
:103D4000022318461037BD4680BD000080B58AB0FA
:103D500000AF78607B681B681B687B627B681B68B0
:103D6000DB683B627B681B685B69FB610023BB61AE
:103D700000237B617B6A03F00F03BB61BB69002BEF
:103D80000DD17B6A03F02003002B08D03B6A03F0BF
:103D90002003002B03D0786800F0C9FA7BE1BB69EF
:103DA000002B00F0B180FB6903F00103002B05D16B
:103DB0003B6A03F49073002B00F0A6807B6A03F04B
:103DC0000103002B0AD03B6A03F48073002B05D05B
:103DD0007B681B6C43F001027B681A647B6A03F00A
:103DE0000403002B0AD0FB6903F00103002B05D06C
:103DF0007B681B6C43F002027B681A647B6A03F0E9
:103E00000203002B0AD0FB6903F00103002B05D04D
:103E10007B681B6C43F004027B681A647B6A03F0C6
:103E20000803002B0FD03B6A03F02003002B04D1C2
:103E3000FB6903F00103002B05D07B681B6C43F08A
:103E400008027B681A647B681B6C002B00F01E81E3
:103E50007B6A03F02003002B07D03B6A03F02003AA
:103E6000002B02D0786800F062FA7B681B685B69FF
:103E700003F04003002B14BF01230023DBB27B615E
:103E80007B681B6C03F00803002B02D17B69002BBD
:103E900031D0786800F0A4F97B681B685B6903F097
:103EA0004003002B23D07B681B685A697B681B6822
:103EB00022F040025A617B689B6B002B13D07B6819
:103EC0009B6B764A5A637B689B6B1846FEF794FAA5
:103ED0000346002B16D07B689B6B5B6B7A68926BFA
:103EE000104698470EE0786800F0E3F80AE078683A
:103EF00000F0DFF806E0786800F0DBF87B6800226D
:103F00001A64C3E000BFC1E07B681B6B012B40F06B
:103F1000A1807B6A03F01003002B00F09B803B6ABA
:103F200003F01003002B00F095800023FB607B68FA
:103F30001B681B68FB607B681B685B68FB60FB6839
:103F40007B681B685B6903F04003002B4ED07B68E5
:103F50009B6B1B685B683B823B8A002B00F0988060
:103F60007B689B8D3A8A9A4280F092807B683A8A7D
:103F7000DA857B689B6B9B69202B2BD07B681B6849
:103F8000DA687B681B6822F48072DA607B681B68E1
:103F90005A697B681B6822F001025A617B681B68C2
:103FA0005A697B681B6822F040025A617B682022B4
:103FB00083F83E207B6800221A637B681B68DA68FE
:103FC0007B681B6822F01002DA607B689B6B1846E6
:103FD000FEF7D7F97B689A8D7B68DB8D9BB2D31A8D
:103FE0009BB21946786800F06DF851E07B689A8DB5
:103FF0007B68DB8D9BB2D31A7B827B68DB8D9BB2A7
:10400000002B47D07B8A002B44D07B681B68DA6882
:104010007B681B6822F49072DA607B681B685A69BF
:104020007B681B6822F001025A617B68202283F8BA
:104030003E207B6800221A637B681B68DA687B6815
:104040001B6822F01002DA607B8A1946786800F05B
:1040500039F81FE07B6A03F08003002B08D03B6A2D
:1040600003F08003002B03D0786800F0F9F812E029
:104070007B6A03F04003002B0DD03B6A03F0400342
:10408000002B08D0786800F03AF904E000BF02E0A5
:1040900000BF00E000BF2837BD4680BD39420008A0
:1040A00080B483B000AF786000BF0C37BD4680BCE1
:1040B000704780B483B000AF786000BF0C37BD4656
:1040C00080BC704780B483B000AF78600B467B80C3
:1040D00000BF0C37BD4680BC704780B584B000AFD0
:1040E000F860B9603B601346FB712CE0BB69B3F12B
:1040F000FF3F28D0BB69002B07D0FDF7FDFA024631
:104100003B68D31ABA699A421DD2FB681B68DA6809
:10411000FB681B6822F4D072DA60FB681B685A697E
:10412000FB681B6822F001025A61FB68202283F8B9
:104130003D20FB68202283F83E20FB68002283F8A4
:104140003C2003230FE0FB681B681A68BB68134020
:10415000BA689A420CBF01230023DBB21A46FB79EE
:104160009A42C3D0002318461037BD4680BD80B4A4
:1041700085B000AFF860B9601346FB80FB68BA6891
:104180009A62FB68FA889A85FB68FA88DA85FB6888
:1041900000221A64FB68222283F83E20FB6800227A
:1041A00083F83C20FB681B68DA68FB681B6842F4F4
:1041B0008072DA60FB681B685A69FB681B6842F012
:1041C00001025A61FB681B68DA68FB681B6842F0F1
:1041D0002002DA60002318461437BD4680BC7047C1
:1041E00080B483B000AF78607B681B68DA687B6856
:1041F0001B6822F49072DA607B681B685A697B68DE
:104200001B6822F001025A617B681B6B012B07D1EE
:104210007B681B68DA687B681B6822F01002DA6032
:104220007B68202283F83E207B6800221A6300BF4F
:104230000C37BD4680BC704780B584B000AF786055
:104240007B685B6AFB60FB680022DA85FB68002202
:10425000DA84F868FFF72DFF00BF1037BD4680BD38
:1042600080B485B000AF78607B6893F83D30DBB2F6
:10427000212B3ED17B689B68B3F5805F14D17B68AE
:104280001B69002B10D17B681B6AFB60FB681B88D5
:104290001A467B681B68C2F308025A607B681B6A77
:1042A0009A1C7B681A6208E07B681B6A591C7A6852
:1042B00011621A787B681B685A607B68DB8C9BB242
:1042C000013B9BB27A681946D184002B0FD17B68E1
:1042D0001B68DA687B681B6822F08002DA607B6802
:1042E0001B68DA687B681B6842F04002DA600023D2
:1042F00000E0022318461437BD4680BC704780B5E5
:1043000082B000AF78607B681B68DA687B681B68E6
:1043100022F04002DA607B68202283F83D20786832
:10432000FFF7BEFE002318460837BD4680BD80B5A6
:1043300086B000AF78607B6893F83E30DBB2222B0A
:1043400040F099807B689B68B3F5805F17D17B68EC
:104350001B69002B13D100237B617B689B6A3B6147
:104360007B681B685B689BB2C3F308039AB23B6926
:104370001A807B689B6A9A1C7B689A6226E07B683D
:104380009B6A7B6100233B617B689B68B3F5805F20
:1043900007D07B689B68002B0AD17B681B69002BC8
:1043A00006D17B681B685B68DAB27B691A7008E02B
:1043B0007B681B685B68DBB203F07F03DAB27B6962
:1043C0001A707B689B6A5A1C7B689A627B68DB8DDB
:1043D0009BB2013B9BB27A681946D185002B48D12C
:1043E0007B681B68DA687B681B6822F02002DA6051
:1043F0007B681B68DA687B681B6822F48072DA606D
:104400007B681B685A697B681B6822F001025A614D
:104410007B68202283F83E207B681B6B012B23D115
:104420007B6800221A637B681B68DA687B681B68FC
:1044300022F01002DA607B681B681B6803F010032F
:10444000102B0AD10023FB607B681B681B68FB6094
:104450007B681B685B68FB60FB687B689B8D19460B
:104460007868FFF72FFE02E07868FCF71BFD002359
:1044700002E0002300E0022318461837BD4680BD45
:1044800080B584B000AF78607B681B681B6923F43B
:1044900040517B68DA687B681B680A431A617B6855
:1044A0009A687B681B691A437B685B691343BB602E
:1044B0007B681B68DB6823F4B05323F00C037A6835
:1044C0001268B9680B43D3607B681B685B6923F48F
:1044D00040717B689A697B681B680A435A617B68F4
:1044E0001B682C4A934203D1FEF790FDF86002E06E
:1044F000FEF778FDF860FA6813469B0013449A00B3
:104500001A447B685B689B00B2FBF3F3224AA2FB70
:1045100003235B091901FA6813469B0013449A00B0
:104520001A447B685B689B00B2FBF3F21A4BA3FB57
:1045300002035B09642000FB03F3D31A1B0132332F
:10454000154AA2FB03235B0903F0F0031944FA6840
:1045500013469B0013449A001A447B685B689B00D7
:10456000B2FBF3F20C4BA3FB02035B09642000FBDC
:1045700003F3D31A1B013233074AA2FB03235B095F
:1045800003F00F027B681B680A449A6000BF103773
:10459000BD4680BD003801401F85EB51014B1868B6
:1045A000704700BF1400002070B500260C4D0D4C64
:1045B000641BA410A64209D102F0BCFE00260A4DDD
:1045C0000A4C641BA410A64205D170BD55F8043BEB
:1045D00098470136EEE755F8043B98470136F2E775
:1045E00004780008047800080478000808780008B7
:1045F00003460244934200D1704703F8011BF9E7D8
:10460000002B2DE9F0471F46BBBF03F100431F46B7
:1046100000232D2388B01446129A109D1370149B0A
:10462000DDF84CA023F02008B8F1460F05D0B8F112
:10463000450F00D10135022300E0032307AA0492AD
:1046400006AACDE902A2CDE9003522463B4600F09C
:10465000E7FCB8F1470F064602D1119BDB0722D5D4
:10466000B8F1460F06EB050910D13378302B0AD18B
:104670000022002320463946FCF796F918B9C5F107
:104680000105CAF80050DAF80030994400220023EE
:1046900020463946FCF788F908B1CDF81C90302245
:1046A000079B4B4507D33046079B159A9B1B13600E
:1046B00008B0BDE8F087591C07911A70F0E703466F
:1046C000F7B5002903F8022BB6BF2D222B22494251
:1046D000092942702BDD0DF10704A4460A2791FB3E
:1046E000F7F60A46A64607FB1615632A05F13005BC
:1046F000314604F1FF340EF8015CF0DC3031AEF1EC
:10470000020504F8011C2946441C61450AD30DF139
:104710000902A2EB0E02654588BF00221344181A55
:1047200003B0F0BD11F8012B04F8012FEDE73023A1
:1047300030318370C170031DF1E700002DE9F04FA7
:1047400091B00C46DDF8688016461F46054601F01C
:1047500055FA036818460993FBF7FAFC00230E93F9
:10476000D8F800300A90073323F0070303F108025A
:1047700094F81890D4F800B0C8F80020D3E90023CA
:10478000C4E91223D4E9128A2AF000430B934FF0B4
:10479000FF3240469C4B0B99FCF738F970BB4FF049
:1047A000FF324046984B0B99FCF712F930BB0022C0
:1047B000002340465146FCF701F910B12D2384F83F
:1047C0004330924B9248B9F1470F94BF98468046C8
:1047D00003234FF0000A23612BF0040323603346C8
:1047E0002146284600970FAA00F0D4F9013040F086
:1047F00090804FF0FF3011B0BDE8F08F4246534635
:1048000040465146FCF702F948B1BAF1000FB8BF73
:104810002D238048B8BF84F843307F4BD3E76368CB
:1048200009F0DF015A1C42D1062363600022069280
:104830000EAACDE904920DAA4BF4806303920DF108
:104840003302CDE901322360636842460093284673
:1048500053460B91FFF7D4FE0B99804647290D99DB
:1048600008D1C81C02DB6368994240DDA9F1020946
:104870005FFA89F9B9F1650F1FD84A46013904F189
:1048800050000D91FFF71BFF0E9A82461318012A64
:10489000236102DC2268D20701D5013323619DF830
:1048A0003330002B9BD02D2384F8433097E74729E2
:1048B000BCD1002BBAD10123B7E7B9F1660F18D1EB
:1048C000002963680BDD216113B92268D00702D586
:1048D00001330B4423614FF0000AA165DFE713B9F0
:1048E0002268D20701D50233F4E70123F2E74FF043
:1048F00067090E9B994205DB23682161D807EAD539
:104900004B1CE7E70029CCBF0122C1F1020213448E
:10491000E0E723685A0507D4236942463146284612
:10492000B84701302BD164E7B9F1650F40F2DD8063
:10493000D4E9120100220023FCF736F8002833D016
:10494000012331462846354AB84701303FF451AF7C
:10495000DDE90D239A4202DB2368D8070FD5DDE994
:10496000092331462846B84701303FF442AF4FF0A3
:10497000000804F11A090E9B013B434509DC23683A
:104980009B0700F10281E0680F9B9842B8BF184670
:1049900031E701234A4631462846B84701303FF403
:1049A00028AF08F10108E6E70D9B002B38DC012356
:1049B00031462846194AB84701303FF41AAFDDE9BD
:1049C0000D23134302D12368D907D8D5DDE9092384
:1049D00031462846B84701303FF40BAF4FF000098D
:1049E00004F11A0A0D9B5B424B4501DC0E9B94E7D8
:1049F0000123524631462846B84701303FF4F9AE0C
:104A000009F10109EEE700BFFFFFEF7F2474000802
:104A100028740008307400082C74000834740008EE
:104A20000E9AA36D9A42A8BF1A46002A914637DC17
:104A30004FF0000B29EAE97904F11A02D4F858A0E2
:104A4000AAEB09035B4533DCDDE90D239A423BDB2E
:104A50002368DA0738D40E9A0D99A2EB0A03A2EB69
:104A600001099945A8BF9946B9F1000F34DC4FF010
:104A7000000829EAE97904F11A0ADDE90D239B1AF5
:104A8000A3EB090343457FF77AAF01235246314632
:104A90002846B84701303FF4ACAE08F10108ECE716
:104AA0001346314642462846B8470130C0D1A0E6F9
:104AB0000123314628460B92B84701303FF499AEA6
:104AC0000B9A0BF1010BB9E73146DDE909232846C2
:104AD000B8470130BFD18CE64B463146284608EB3B
:104AE0000A02B8470130C2D183E60E9A012A01DCDE
:104AF000DB0737D50123424631462846B847013007
:104B00003FF477AEDDE9092331462846B847013046
:104B10003FF46FAED4E9120100220023FBF744FFFB
:104B2000D8B90E9B08F10102013B31462846B8472F
:104B300001300ED15DE601234A4631462846B8478A
:104B400001303FF456AE08F101080E9B013B43458E
:104B5000F1DC534604F15002E0E64FF0000804F1A6
:104B60001A09F2E701234246DFE701234A463146AC
:104B70002846B84701303FF43CAE08F10108E3682D
:104B80000F995B1A4345F0DCFDE64FF0000804F195
:104B90001909F4E72DE9F047164699468A680B692A
:104BA00007469342B8BF1346336091F843200C4642
:104BB000DDF820800AB1013333602368990642BFD3
:104BC000336802333360256815F0060506D104F119
:104BD000190AE36832689B1AAB4228DC94F8432038
:104BE000131E226818BF012392062DD44946384669
:104BF00004F14302C047013020D02368E56803F088
:104C00000603042B18BF002532684FF00006A36886
:104C100008BFAD1A226908BF25EAE5759342C4BFF3
:104C20009B1AED181A34B5421AD1002008E001236E
:104C3000524649463846C047013003D14FF0FF3055
:104C4000BDE8F0870135C4E73020E11881F8430062
:104C50005A1C94F845102244023382F84310C5E7E9
:104C60000123224649463846C0470130E6D0013686
:104C7000D9E700002DE9FF470C46277E9146782FA3
:104C800080469A460C9904F1430207D8622F0AD84D
:104C9000002F00F0D980582F00F0A48004F14206C4
:104CA00084F842703AE0A7F16303152BF6D801A00F
:104CB00050F823F00D4D0008214D00089D4C0008D0
:104CC0009D4C00089D4C00089D4C0008214D00089B
:104CD0009D4C00089D4C00089D4C00089D4C000810
:104CE0002F4E0008514D0008114E00089D4C000841
:104CF0009D4C0008514E00089D4C0008514D000885
:104D00009D4C00089D4C0008194E00080B6804F1EA
:104D100042061A1D1B680A6084F842300123A4E091
:104D2000256808682E0600F104030AD505680B60A3
:104D3000002D03DA2D236D4284F843300A235E48A8
:104D400019E015F0400F05680B6018BF2DB2EFE7B2
:104D50000B682568181D0860280601D51D6802E04B
:104D60006906FBD51D886F2F0CBF08230A23524804
:104D7000002184F843106668002EA8BF2168A66051
:104D8000A4BF21F0040121600DB9002E4DD01646BC
:104D9000B5FBF3F103FB1157C75D06F8017D2F4604
:104DA000BB420D46F4D9082B0BD12368DF0708D589
:104DB000236961689942DEBF302306F8013C06F1A1
:104DC000FF36921B22614B4621464046CDF800A09B
:104DD00003AAFFF7DFFE01304CD14FF0FF3004B0E3
:104DE000BDE8F087344884F845700E68236856F8AB
:104DF000045B1F060E6014D5D90744BF43F020039F
:104E000023601DB9236823F0200323601023AFE73C
:104E1000236843F0200323607823284884F8453032
:104E2000E3E75E0648BFADB2E6E71646BBE70B68B0
:104E300026681D1D60690D6035061B6801D5186068
:104E400002E07106FBD51880002316462361BAE7FD
:104E50000B681A1D0A601E6800213046626800F067
:104E6000D9FE08B1801B606063682361002384F869
:104E70004330A8E73246494640462369D0470130CF
:104E8000ABD023689B0713D4E068039B9842B8BF5C
:104E90001846A4E70123324649464046D047013030
:104EA0009BD00135E36803995B1AAB42F2DCEBE778
:104EB000002504F11906F5E7367400084774000868
:104EC0000EB46FF0004100B59CB01DAB029006908F
:104ED000079104910848094953F8042B059100688B
:104EE00002A9019301F044FB0022029B1A701CB03E
:104EF0005DF804EB03B07047140000200802FFFFC8
:104F00002DE9F74F03690C690746A342C0F283807D
:104F1000013C00F1140501F1140805EB8403019331
:104F200058F8243055F8242001339A42B2FBF3F6A6
:104F30004FEA840B08EB840932D34FF0000E404651
:104F4000AC46F24650F8042B93B206FB03E3120C76
:104F50004FEA134E06FB02E29BB2AAEB0303DCF816
:104F600000A04FEA124E1FFA8AFA53441FFA82FA3F
:104F7000DCF800208145CAEB124202EB23429BB2CF
:104F800043EA02434FEA224A4CF8043BDAD255F88E
:104F90000B302BB9019B043B9D421A462FD33C6139
:104FA000384601F0CDF8002825DB28464FF0000CEC
:104FB000013658F8041BD0F800E08BB2ACEB0303C9
:104FC0001FFA8EF213440A0CC2EB1E4202EB23427C
:104FD0009BB243EA0243C1454FEA224C40F8043BEE
:104FE000E7D255F8242005EB840322B9043B9D4207
:104FF0001A460AD33C61304603B0BDE8F08F126810
:10500000043B002ACBD1013CC6E71268043B002ACE
:10501000F0D1013CEBE70020EEE7000000000000CB
:105020002DE9F04F16461F46446A99B00546CDE972
:105030000467DDF8948074B9102000F0E3FD0246A7
:10504000686220B9EA21AE4BAE4801F0A1FBC0E98D
:1050500001440460C4606B6A196851B15A68012345
:1050600093404A608B60284600F030FE00226B6A55
:105070001A603B1EAFBF0023012223F000430593BB
:10508000A8BFC8F80030DDF814909F4BB8BFC8F82F
:10509000002033EA090319D142F20F73249A1360F6
:1050A000C9F31303334300F08085269B53B9974B14
:1050B00022E0974B08930833269A1360089819B09A
:1050C000BDE8F08F914B08930333F5E7DDE9043435
:1050D000CDE90C34DDE90C0100220023FBF764FC70
:1050E000804658B10123249A1360269B002B00F0C0
:1050F000598588481860431E0893DFE716AB019373
:1051000017AB00932846DDE90C2301F0C5F8C9F37D
:105110000A548246002C7ED0DDE90C010D9BA4F2DE
:10512000FF34C3F3130343F07F5141F44011CDF832
:105130004C800022784BFBF717F86BA3D3E90023D0
:10514000FBF7CAF96AA3D3E90023FBF70FF8064679
:1051500020460F46FBF756F967A3D3E90023FBF778
:10516000BBF902460B4630463946FAF7FFFF0646C2
:105170000F46FBF761FC002281460023304639468A
:10518000FBF71CFC48B14846FBF73CF932463B466E
:10519000FBF70AFC08B909F1FF39B9F1160F57D826
:1051A000DDE90C015D4B03EBC903D3E90023FBF7F9
:1051B00005FC00284ED0002309F1FF390F93169B00
:1051C0001C1B631E099349BFC4F10103002306930E
:1051D000002354BF06930993B9F1000F3CDB099BF0
:1051E000CDF838904B44099300230A93229B092B56
:1051F0006CD8052BC4BF043B2293229BC8BF00245C
:10520000A3F10203D8BF0124032B00F28B80DFE857
:1052100003F02D4F4D5BDDE916431C4404F232438D
:10522000202BC3BFC3F1400304F2124009FA03F379
:10523000C3F12003C6BF26FA00F0184306FA03F0B4
:10524000FBF7D0F80123A1F1F871013C139370E74B
:105250000123B3E70F90B2E7069BA3EB0903069384
:10526000C9F100030A9300230E93BFE700230B93B9
:10527000239B002B59DC4FF0010B5B46CDF808B0A7
:10528000CDF88CB00022686A4260042202F1140654
:105290009E4241684FD9284600F0D8FC089000286B
:1052A0004DD102464FF4D5711D4BCDE60123DEE70B
:1052B00000230B93239B09EB030B0BF10103012B41
:1052C0000293B8BF0123DDE70123F2E701240023A5
:1052D0000B9422934FF0FF3B00221223CDF808B02D
:1052E0002392CFE7AFF3008061436F63A787D23F7C
:1052F000B3C8608B288AC63FFB799F501344D33FC5
:10530000657400087C7400080000F07F6174000878
:1053100058740008357400080000F83F78750008DC
:10532000DB74000801230B93D4E7DDF88CB05B46F7
:10533000CDF808B0A6E7013141605200A6E76B6ADC
:10534000089A1A60029B0E2B00F2A880002C00F035
:10535000A580B9F1000F34DD9A4A09F00F0302EB82
:10536000C30319F4807FD3E90034CDE910344FEA48
:10537000291416D0DDE90C01934B0327D3E9082348
:10538000FBF7D4F9CDE9040104F00F048E4E54B9B3
:10539000DDE91023DDE90401FBF7C8F9CDE90401DB
:1053A00029E00227F2E7E10708D5DDE91001D6E997
:1053B0000023FBF791F8CDE910010137641008369E
:1053C000E5E700F0A580DDE90C01C9F100047D4BA3
:1053D00004F00F0203EBC203D3E90023FBF77CF8D0
:1053E00002270023CDE90401774E2411002C40F060
:1053F0008480002BD2D10F9B002B00F08B80DDE945
:105400000434CDE91034DDE9100100226F4BFBF7C5
:10541000D5FA00287ED0029B002B7BD0BBF1000F79
:1054200038DDDDE910010022694BFBF755F85C46D9
:10543000CDE9040109F1FF3801373846FAF7E2FFF8
:10544000DDE90423FBF748F80022624BFAF78EFEF1
:10545000A1F15076CDE910011196002C5DD1DDE966
:10546000040100225C4BFAF77FFE02460B46CDE9B1
:1054700004233346109AFBF7BFFA002840F09E82BF
:10548000DDE90401109A06F10043FBF797FA0028C2
:1054900040F09282DDE90C34CDE90434179B002BF7
:1054A000C0F25381B9F10E0F00F34F81454B03EB6E
:1054B000C903D3E90034CDE90634239B002B80F2E5
:1054C000DB80029B002B00F3D78040F07482DDE983
:1054D00006010022404BFAF7FFFFDDE90423FBF74A
:1054E00081FA029C2646002840F04A823123089F18
:1054F00009F1010907F8013B46E2E20705D5D6E9C3
:105500000023FAF7E9FF01230137641008366DE73D
:10551000022770E7C846029C8FE70899294B21446F
:1055200012910B9903EBC403DDE9106753E90223E1
:10553000002955D000202949FBF7F8F83B463246B0
:10554000FAF712FECDE91001089FDDE90401FBF72F
:1055500073FA0446FAF756FF02460B46DDE90401EA
:10556000FAF702FE02460B463034CDE90423DDE9AA
:10557000102307F8014BFBF721FA002874D1DDE96D
:10558000042300201149FAF7EFFDDDE91023FBF7B2
:1055900015FA002840F0B680129B9F423FF47AAF84
:1055A000DDE9100100220A4BFAF796FF0022CDE94F
:1055B0001001DDE90401064BFAF78EFFCDE9040185
:1055C000C3E700BF78750008507500080000F03F81
:1055D0000000244000001C40000014400000E03F98
:1055E00030463946FAF778FF129BCDE91001089C46
:1055F0001493DDE90401FBF71FFA1590FAF702FF97
:1056000002460B46DDE90401FAF7AEFD159B06469E
:10561000303304F8013B129B0F469C424FF00002CE
:1056200024D1DDE91001B34BFAF7A0FD02460B4689
:1056300030463946FBF7E0F9002862D1DDE9102356
:105640000020AC49FAF790FD02460B463046394639
:10565000FBF7B4F900283FF41DAF149F7B1E149391
:1056600017F8013C302BF8D0C1463AE0A24BFAF7CC
:1056700033FFCDE90401BCE7089FDDE90623DDE93E
:105680000401FBF753F8FBF7D7F90446FAF7BAFE23
:10569000DDE90623FAF720FF04F130060B46024647
:1056A000DDE90401FAF760FD07F8016B089E029B33
:1056B000BE1BB3423AD102460B46FAF757FD0246EB
:1056C0000B46CDE90223DDE90623FBF795F958BB2C
:1056D000DDE90623DDE90201FBF766F908B1E10720
:1056E00022D42846514600F0F1FA00233B70249B57
:1056F00009F101001860269B002B3FF4DFAC1F600E
:10570000DCE427463B461F4613F8012D392A07D112
:10571000089A9A42F7D13022089908F101080A70D4
:105720001A7801321A709FE7C846EBE70022724BE5
:10573000FAF7D2FE02460B46CDE9042300220023ED
:10574000FBF732F9002898D0CBE70B9A002A00F03B
:10575000CD80229A012A00F3AF80139A002A00F02C
:10576000A78003F233430A9C069F069A01211A443C
:105770000692099A28461A44099200F061FB0646EF
:10578000002F0CDD099B002B09DDBB42A8BF3B4667
:10579000069AFF1AD21A0692099AD31A09930A9BFB
:1057A000F3B10B9B002B00F0A980002C10DD3146DB
:1057B0002246284600F0FEFB524601460646284691
:1057C00000F054FB80465146284600F07FFAC2465E
:1057D0000A9B1A1B04D05146284600F0EBFB824678
:1057E0000121284600F02CFB0E9B0446002B40F3C1
:1057F00087801A460146284600F0DCFB229B0446BF
:10580000012B40F380804FF00008236904EB8303F1
:10581000186900F0C7FAC0F12000099B184410F085
:105820001F0000F09280C0F12003042B40F38A8017
:10583000C0F11C00069B074403440693099B0344E4
:105840000993069B002B05DD51461A46284600F0B9
:105850000BFC8246099B002B05DD21461A46284693
:1058600000F002FC04460F9B002B70D021465046EE
:1058700000F066FC00286ADA002351460A22284616
:1058800000F046FA0B9B824609F1FF39002B00F02D
:105890009381314600230A22284600F039FABBF1F1
:1058A000000F064600F39380229B022B57DC8EE00C
:1058B000169BC3F1360356E7029B5C1E0A9BA3426C
:1058C000B7BF0A9B1C1BE21A0E9BBEBF0A949B1813
:1058D0000E93029BB8BF0024002BBBBF069B029A0D
:1058E000069F9F1AACBF029B00233EE70A9C069FBF
:1058F0000B9E45E70000E03F000024400A9A6AE75B
:10590000229B012B19DC049BBBB9059BC3F313033A
:105910009BB9059B23F000431B0D1B0583B14FF082
:105920000108069B01330693099B013309930E9BE3
:10593000002B7FF46AAF01206FE74FF00008F6E715
:105940009846F4E73FF47DAF18461C3072E7029B9F
:10595000002B36DC229B022B33DDDDF808B0BBF1D7
:10596000000F0DD121465B460522284600F0D0F9F4
:1059700001460446504600F0E3FB00283FF7B6AD71
:10598000239B089F6FEA03094FF000082146284631
:1059900000F09CF9002E3FF4A4AEB8F1000F05D042
:1059A000B04503D04146284600F090F931462846DC
:1059B00000F08CF995E600242646E1E7C14626462C
:1059C00094E50B9BDDF808B0002B00F0FC80002F65
:1059D00005DD31463A46284600F046FB0646B8F15A
:1059E000000F5CD02846716800F030F9074628B9EE
:1059F000024640F2EA217E4BFFF726BB326906F1F0
:105A00000C01023292000C3000F012F901223946EA
:105A1000284600F029FBB0460646089B0133029356
:105A2000089B5B440A93049B03F001030993029BC8
:105A30002146504603F1FF3BFFF762FA0346414619
:105A40003033049050460B9300F07AFB32460690B8
:105A50002146284600F090FBC26807460B9B02BB1C
:105A60000146504600F06CFB02460B9B3946284627
:105A7000CDE90B3200F02AF9229B0C9A029F43EAEF
:105A80000201099B0B430B9B0DD1392B27D0069AA2
:105A9000002A01DD049B31338BF8003076E7304675
:105AA000B9E70122E2E70699002904DB22980143C5
:105AB0000998014320D1002AEEDD514601222846F3
:105AC000029300F0D1FA2146824600F039FB00280B
:105AD000029B02DCE0D1DA07DED5392BDAD139239B
